{
  "_format": "hh-sol-artifact-1",
  "contractName": "EducationalVault",
  "sourceName": "contracts/EducationalVault.sol",
  "abi": [
    {
      "inputs": [
        {
          "internalType": "uint256",
          "name": "requested",
          "type": "uint256"
        },
        {
          "internalType": "uint256",
          "name": "available",
          "type": "uint256"
        }
      ],
      "name": "InsufficientBalance",
      "type": "error"
    },
    {
      "inputs": [],
      "name": "TransferFailed",
      "type": "error"
    },
    {
      "inputs": [],
      "name": "ZeroAmount",
      "type": "error"
    },
    {
      "anonymous": false,
      "inputs": [
        {
          "indexed": true,
          "internalType": "address",
          "name": "user",
          "type": "address"
        },
        {
          "indexed": false,
          "internalType": "uint256",
          "name": "amount",
          "type": "uint256"
        }
      ],
      "name": "Deposit",
      "type": "event"
    },
    {
      "anonymous": false,
      "inputs": [
        {
          "indexed": true,
          "internalType": "address",
          "name": "user",
          "type": "address"
        },
        {
          "indexed": false,
          "internalType": "uint256",
          "name": "amount",
          "type": "uint256"
        }
      ],
      "name": "Withdrawal",
      "type": "event"
    },
    {
      "inputs": [],
      "name": "deposit",
      "outputs": [],
      "stateMutability": "payable",
      "type": "function"
    },
    {
      "inputs": [],
      "name": "getBalance",
      "outputs": [
        {
          "internalType": "uint256",
          "name": "",
          "type": "uint256"
        }
      ],
      "stateMutability": "view",
      "type": "function"
    },
    {
      "inputs": [],
      "name": "getContractBalance",
      "outputs": [
        {
          "internalType": "uint256",
          "name": "",
          "type": "uint256"
        }
      ],
      "stateMutability": "view",
      "type": "function"
    },
    {
      "inputs": [],
      "name": "getTotalDeposits",
      "outputs": [
        {
          "internalType": "uint256",
          "name": "",
          "type": "uint256"
        }
      ],
      "stateMutability": "view",
      "type": "function"
    },
    {
      "inputs": [
        {
          "internalType": "address",
          "name": "user",
          "type": "address"
        }
      ],
      "name": "getUserBalance",
      "outputs": [
        {
          "internalType": "uint256",
          "name": "",
          "type": "uint256"
        }
      ],
      "stateMutability": "view",
      "type": "function"
    },
    {
      "inputs": [],
      "name": "totalDeposits",
      "outputs": [
        {
          "internalType": "uint256",
          "name": "",
          "type": "uint256"
        }
      ],
      "stateMutability": "view",
      "type": "function"
    },
    {
      "inputs": [
        {
          "internalType": "uint256",
          "name": "amount",
          "type": "uint256"
        }
      ],
      "name": "withdraw",
      "outputs": [],
      "stateMutability": "nonpayable",
      "type": "function"
    }
  ],
  "bytecode": "0x608060405234801561001057600080fd5b506103d0806100206000396000f3fe6080604052600436106100705760003560e01c8063477348921161004e57806347734892146100dc5780636f9fb98a146101125780637d88209714610125578063d0e30db01461013b57600080fd5b806312065fe014610075578063168a4822146100a55780632e1a7d4d146100ba575b600080fd5b34801561008157600080fd5b50336000908152602081905260409020545b60405190815260200160405180910390f35b3480156100b157600080fd5b50600154610093565b3480156100c657600080fd5b506100da6100d536600461030f565b610143565b005b3480156100e857600080fd5b506100936100f7366004610328565b6001600160a01b031660009081526020819052604090205490565b34801561011e57600080fd5b5047610093565b34801561013157600080fd5b5061009360015481565b6100da61027a565b8060000361016457604051631f2a200560e01b815260040160405180910390fd5b33600090815260208190526040902054808211156101a35760405163cf47918160e01b8152600481018390526024810182905260440160405180910390fd5b6101ad828261036e565b33600090815260208190526040812091909155600180548492906101d290849061036e565b909155505060405182815233907f7fcf532c15f0a6db0bd6d0e038bea71d30d808c7d98cb3bf7268a95bf5081b659060200160405180910390a2604051600090339084908381818185875af1925050503d806000811461024e576040519150601f19603f3d011682016040523d82523d6000602084013e610253565b606091505b5050905080610275576040516312171d8360e31b815260040160405180910390fd5b505050565b3460000361029b57604051631f2a200560e01b815260040160405180910390fd5b33600090815260208190526040812080543492906102ba908490610387565b9250508190555034600160008282546102d39190610387565b909155505060405134815233907fe1fffcc4923d04b559f4d29a8bfc6cda04eb5b0d3c460751c2402c5c5cc9109c9060200160405180910390a2565b60006020828403121561032157600080fd5b5035919050565b60006020828403121561033a57600080fd5b81356001600160a01b038116811461035157600080fd5b9392505050565b634e487b7160e01b600052601160045260246000fd5b8181038181111561038157610381610358565b92915050565b808201808211156103815761038161035856fea2646970667358221220fb033c3d1c579f32ecf974bf1ea1569fa00a60c788fdcf11c9d4494b9bf595ee64736f6c63430008140033",
  "linkReferences": {},
  "deployedLinkReferences": {}
}